:100000000C9436000C945E000C945E000C945E0020
:100010000C945E000C945E000C945E000C945E00E8
:100020000C945E000C945E000C945E000C945E00D8
:100030000C945E000C945E000C945E000C945E00C8
:100040000C94E80A0C945E000C94580B0C94320B40
:100050000C945E000C945E000C945E000C945E00A8
:100060000C945E000C945E008A0B611311241FBE79
:10007000CFEFD8E0DEBFCDBF23E0AEE8B1E001C0F6
:100080001D92AD31B207E1F711E0A0E0B1E0ECE87C
:10009000F0E302C005900D92AE38B107D9F710E039
:1000A000C5E3D0E004C02197FE010E943816C43396
:1000B000D107C9F70E94BE0C0C9439180C940000AB
:1000C0002FB7F89460919C0170919D0180919E01E1
:1000D00090919F012FBF0895AF92BF92CF92DF9270
:1000E000EF92FF920F931F93CF93DF936C017B01ED
:1000F0008B01040F151FEB015E01AE18BF08C0177E
:10010000D10759F06991D601ED91FC910190F081F0
:10011000E02DC6010995892B79F7C501DF91CF91B3
:100120001F910F91FF90EF90DF90CF90BF90AF9015
:100130000895FC01538D448D252F30E0842F90E0ED
:10014000821B930B541710F0CF96089501970895D2
:10015000FC01918D828D981761F0A28DAE0FBF2F9B
:10016000B11D5D968C91928D9F5F9F73928F90E0F1
:1001700008958FEF9FEF0895FC01918D828D981760
:1001800031F0828DE80FF11D858D90E008958FEF9D
:100190009FEF0895FC01918D228D892F90E0805C66
:1001A0009F4F821B91098F739927089580EA91E0F0
:1001B0000E94CA0021E0892B09F420E0822F0895D3
:1001C000FC01A48DA80FB92FB11DA35ABF4F2C91CC
:1001D000848D90E001968F739927848FA689B789C3
:1001E0002C93A089B1898C91837080648C93938DBA
:1001F000848D981306C00288F389E02D80818F7D5D
:1002000080830895EF92FF920F931F93CF93DF9314
:10021000EC0181E0888F9B8D8C8D98131AC0E88942
:10022000F989808185FF15C09FB7F894EE89FF8911
:100230006083E889F98980818370806480839FBFAF
:1002400081E090E0DF91CF911F910F91FF90EF90AF
:100250000895F62E0B8D10E00F5F1F4F0F731127BF
:10026000E02E8C8D8E110CC00FB607FCFACFE889FA
:10027000F989808185FFF5CFCE010E94E000F1CFA2
:10028000EB8DEC0FFD2FF11DE35AFF4FF0829FB76E
:10029000F8940B8FEA89FB8980818062CFCFCF935E
:1002A000DF93EC01888D8823B9F0AA89BB89E8899E
:1002B000F9898C9185FD03C0808186FD0DC00FB644
:1002C00007FCF7CF8C9185FFF2CF808185FFEDCFC2
:1002D000CE010E94E000E9CFDF91CF910895FC01AB
:1002E00001900020E9F73197AF01481B590BBC0181
:1002F00080EA91E00C946C008F929F92AF92BF9233
:100300000F931F93CF93DF93CDB7DEB7A1970FB6AF
:10031000F894DEBF0FBECDBF19A2423008F44AE008
:100320008E010F5D1F4F842E912CB12CA12CA501A5
:1003300094010E941616E62FB901CA01EA30F4F4BE
:10034000E05DD801EE938D01232B242B252B79F72B
:1003500090E080E0109719F0CD010E946F01A19606
:100360000FB6F894DEBF0FBECDBFDF91CF911F91C6
:100370000F91BF90AF909F908F900895E95CE1CF6F
:10038000CF92DF92EF92FF92CF93DF936B017C01CC
:100390006DE280EA91E00E940201EC016627772776
:1003A000CB016C197D098E099F094AE00E947C01EE
:1003B0008C0F9D1FDF91CF91FF90EF90DF90CF903A
:1003C0000895BC01990F880B990B97FD0C94C001FF
:1003D0004AE00C947C01CF93DF93BC01990F880B0A
:1003E000990B97FF0CC00E94C001EC0188E191E0DD
:1003F0000E946F018C0F9D1FDF91CF9108954AE0FD
:100400000E947C01F2CFFC0180819181009711F064
:100410000C94DA160895FC0180819181009711F007
:100420000C94651360E070E0CB010895FC01248119
:100430003581232B31F421E0FB01672B49F4822F16
:100440000895808191816115710539F421E0FC01E5
:1004500080818823A1F320E0F2CF0E94291821E0B7
:10046000892B69F3F8CF0F931F93CF93DF93EC01A0
:1004700088819981009759F02A813B812617370797
:1004800030F081E0DF91CF911F910F9108958B01A2
:100490006F5F7F4F0E946317009759F0998388839D
:1004A0001B830A832C813D81232B59F7FC01108289
:1004B000E8CF80E0E7CFEF92FF920F931F93CF93A7
:1004C000DF93EC017B018A01BA010E94330228818B
:1004D0003981811114C02115310519F0C9010E941B
:1004E000DA16198218821D821C821B821A82CE01A2
:1004F000DF91CF911F910F91FF90EF9008951D8391
:100500000C83B701C9010E943218F1CFAF92BF929C
:10051000CF92DF92EF92FF920F931F93CF93DF93CF
:10052000EC016B015A0179012417350720F48B2D5A
:100530005901E42EF82E198218821B821A821D821C
:100540001C8250E040E06DE871E0CE010E945B0249
:10055000D60114960D911C91A016B10628F5E0164F
:10056000F10608F48701D601ED91FC911197E00F97
:10057000F11FF08010826D917C916A0D7B1D6115D9
:100580007105F1F0FB0101900020E9F73197AF010F
:10059000461B570BCE010E945B02F60180819181C0
:1005A000080F191FD801FC92CE01DF91CF911F9146
:1005B0000F91FF90EF90DF90CF90BF90AF90089594
:1005C00088819981009711F00E94DA1619821882A9
:1005D0001D821C821B821A82E0CFCF93DF93EC0135
:1005E000FB012481358147E050E00E948602CE0164
:1005F000DF91CF9108958F929F92AF92BF92CF9249
:10060000DF92EF92FF920F931F93CF93DF9300D06F
:1006100000D000D0CDB7DEB78C016BE171E00E9455
:1006200016028823A9F010928E0126960FB6F89430
:10063000DEBF0FBECDBFDF91CF911F910F91FF9015
:10064000EF90DF90CF90BF90AF909F908F900895E4
:100650006EE171E0C8010E941602882309F491C07E
:1006600080918502909186028230910509F079C0CF
:100670002091B7023091B8024091B9025091BA026C
:100680006091750270917602809177029091780264
:100690000E94FD142091BF023091C0024091C1021E
:1006A0005091C2020E94FD146B017C0120E030E0F9
:1006B00040E05FE30E9407146093BB027093BC02AA
:1006C0008093BD029093BE0280907102909072025E
:1006D000A0907302B0907402A50194010E940714C7
:1006E00020E030E040E05FE30E940714A70196019C
:1006F0000E9469159B01AC012093B3023093B402B0
:100700004093B5025093B602C501B4010E9407148C
:10071000A70196010E9469156093AF027093B00221
:100720008093B1029093B20220E030E040E850E4C0
:10073000C701B6010E9407149B01AC0160916D02D4
:1007400070916E0280916F02909170020E94691503
:100750006093A7027093A8028093A9029093AA02C3
:1007600064CF039709F061CF80E090E0AAE7B4E49A
:100770008093B3029093B402A093B502B093B602F3
:1007800054CF23E030E050E040E0B801CE010196C4
:100790000E94860261E271E0CE0101960E9416027B
:1007A000F82ECE0101960E940302FF2009F4C0C377
:1007B00026E030E043E050E0B801CE0101960E940F
:1007C000860265E271E0CE0101960E941602F82EC3
:1007D000CE0101960E940302FF20C1F0B801CE01B4
:1007E00001960E94ED02CE0101960E940B020E942A
:1007F000A813609393017093940180939501909353
:100800009601CE0101960E9403020FCF26E030E050
:1008100043E050E0B801CE0101960E94860269E2F1
:1008200071E0CE0101960E941602F82ECE010196CB
:100830000E940302FF20D1F0B801CE0101960E9470
:10084000ED02CE0101960E940B020E94A8132CEA31
:1008500035EC47E257E30E9407146093AF027093B0
:10086000B0028093B1029093B202CBCF26E030E089
:1008700043E050E0B801CE0101960E9486026DE28D
:1008800071E0CE0101960E941602F82ECE0101966B
:100890000E940302FF20D1F0B801CE0101960E9410
:1008A000ED02CE0101960E940B020E94A8132FE6D2
:1008B00032E143E85AE30E9407146093B302709355
:1008C000B4028093B5029093B6029BCF26E030E04D
:1008D00043E050E0B801CE0101960E94860261E338
:1008E00071E0CE0101960E941602F82ECE0101960B
:1008F0000E940302FF20D1F0B801CE0101960E94B0
:10090000ED02CE0101960E940B020E94A8132FE671
:1009100032E143E85AE30E9407146093B7027093F0
:10092000B8028093B9029093BA026BCF26E030E010
:1009300043E050E0B801CE0101960E94860265E3D3
:1009400071E0CE0101960E941602F82ECE010196AA
:100950000E940302FF20D1F0B801CE0101960E944F
:10096000ED02CE0101960E940B020E94A8132FE611
:1009700032E143E85AE30E9407146093BB0270938C
:10098000BC028093BD029093BE023BCF26E030E0D4
:1009900043E050E0B801CE0101960E94860269E36F
:1009A00071E0CE0101960E941602F82ECE0101964A
:1009B0000E940302FF20D1F0B801CE0101960E94EF
:1009C000ED02CE0101960E940B020E94A8132FE6B1
:1009D00032E143E85AE30E9407146093BF02709328
:1009E000C0028093C1029093C2020BCF26E030E098
:1009F00043E050E0B801CE0101960E9486026DE30B
:100A000071E0CE0101960E941602F82ECE010196E9
:100A10000E940302FF20D1F0B801CE0101960E948E
:100A2000ED02CE0101960E940B020E94A8132FE650
:100A300032E143E85AE30E9407146093A7027093DF
:100A4000A8028093A9029093AA02DBCE26E030E0B0
:100A500043E050E0B801CE0101960E94860261E4B5
:100A600071E0CE0101960E941602F82ECE01019689
:100A70000E940302FF20D1F0B801CE0101960E942E
:100A8000ED02CE0101960E940B020E94A8132FE6F0
:100A900032E143E85AE30E9407146093AB0270937B
:100AA000AC028093AD029093AE02ABCE26E030E074
:100AB00043E050E0B801CE0101960E94860265E451
:100AC00071E0CE0101960E941602F82ECE01019629
:100AD0000E940302FF20D1F0B801CE0101960E94CE
:100AE000ED02CE0101960E940B020E94A8132FE690
:100AF00032E143E85AE30E9407146093C302709303
:100B0000C4028093C5029093C6027BCE26E030E0FB
:100B100043E050E0B801CE0101960E94860269E4EC
:100B200071E0CE0101960E941602F82ECE010196C8
:100B30000E940302FF20D1F0B801CE0101960E946D
:100B4000ED02CE0101960E940B020E94A8132FE62F
:100B500032E143E85AE30E9407146093C70270939E
:100B6000C8028093C9029093CA024BCE26E030E0BF
:100B700043E050E0B801CE0101960E9486026DE488
:100B800071E0CE0101960E941602F82ECE01019668
:100B90000E940302FF20D1F0B801CE0101960E940D
:100BA000ED02CE0101960E940B020E94A8132FE6CF
:100BB00032E143E85AE30E94071460936D02709398
:100BC0006E0280936F02909370021BCE26E030E09D
:100BD00043E050E0B801CE0101960E94860261E533
:100BE00071E0CE0101960E941602F82ECE01019608
:100BF0000E940302FF20D1F0B801CE0101960E94AD
:100C0000ED02CE0101960E940B020E94A8132FE66E
:100C100032E143E85AE30E9407146093FB027093A9
:100C2000FC028093FD029093FE02EBCD26E030E0C3
:100C300043E050E0B801CE0101960E94860265E5CE
:100C400071E0CE0101960E941602F82ECE010196A7
:100C50000E940302FF20D1F0B801CE0101960E944C
:100C6000ED02CE0101960E940B020E94A8132FE60E
:100C700032E143E85AE30E940714609371027093D3
:100C800072028093730290937402BBCD26E030E031
:100C900043E050E0B801CE0101960E94860269E56A
:100CA00071E0CE0101960E941602F82ECE01019647
:100CB0000E940302FF20D1F0B801CE0101960E94EC
:100CC000ED02CE0101960E940B020E94A8132FE6AE
:100CD00032E143E85AE30E9407146093FF027093E5
:100CE000000380930103909302038BCD26E030E054
:100CF00043E050E0B801CE0101960E9486026DE506
:100D000071E0CE0101960E941602F82ECE010196E6
:100D10000E940302FF20D1F0B801CE0101960E948B
:100D2000ED02CE0101960E940B020E94A8132FE64D
:100D300032E143E85AE30E9407146093750270930E
:100D4000760280937702909378025BCD26E030E0C4
:100D500043E050E0B801CE0101960E94860261E6B0
:100D600071E0CE0101960E941602F82ECE01019686
:100D70000E940302FF20D1F0B801CE0101960E942B
:100D8000ED02CE0101960E940B020E94A8132FE6ED
:100D900032E143E85AE30E9407146093030370931F
:100DA000040380930503909306032BCD26E030E0E7
:100DB00043E050E0B801CE0101960E94860265E64C
:100DC00071E0CE0101960E941602F82ECE01019626
:100DD0000E940302FF2039F1B801CE0101960E9462
:100DE000ED02CE0101960E940B0270938602609381
:100DF0008502CE0101960E940302809185029091A6
:100E00008602892B09F011CC88EE93E09093920131
:100E10008093910110929302109294021092950285
:100E20001092960202CC26E030E043E050E0B80198
:100E3000CE0101960E94860269E671E0CE0101961C
:100E40000E941602F82ECE0101960E940302FF2096
:100E5000D1F0B801CE0101960E94ED02CE010196BB
:100E60000E940B020E94A8132FE632E143E85AE3E6
:100E70000E9407146093CB027093CC028093CD0242
:100E80009093CE02BECC26E030E043E050E0B801C3
:100E9000CE0101960E9486026DE671E0CE010196B8
:100EA0000E941602F82ECE0101960E940302FF2036
:100EB000A9F0B801CE0101960E94ED02CE01019683
:100EC0000E940B027093920160939101CE010196F2
:100ED0000E94030281E080939001A7CB26E030E0DE
:100EE00043E050E0B801CE0101960E94860261E71E
:100EF00071E0CE0101960E941602F82ECE010196F5
:100F00000E940302FF20A1F0B801CE0101960E94C9
:100F1000ED02CE0101960E940B020E94A81360937D
:100F20009302709394028093950290939602CECF91
:100F300023E030E050E040E0B801CE0101960E948D
:100F4000860265E771E0CE0101960E941602F82E36
:100F5000CE0101960E940302FF2009F466CB109295
:100F60008E0126E030E043E050E0B801CE0101966A
:100F70000E94860265E271E0CE0101960E9416028F
:100F8000F82ECE0101960E940302CC24CA94DC2CD8
:100F9000FF2059F060919301709194018091950127
:100FA000909196010E94DB156B0126E030E043E052
:100FB00050E0B801CE0101960E94860269E271E01C
:100FC000CE0101960E941602F82ECE0101960E94D3
:100FD0000302FF2089F020E030E543EC57E4609104
:100FE000AF027091B0028091B1029091B2020E9462
:100FF00007140E94DB156B0126E030E043E050E06F
:10100000B801CE0101960E9486026DE271E0CE0128
:1010100001960E941602F82ECE0101960E9403024C
:10102000FF2089F020E030E04AE754E46091B30209
:101030007091B4028091B5029091B6020E9407149B
:101040000E94DB156B0126E030E043E050E0B80180
:10105000CE0101960E94860261E371E0CE01019605
:101060000E941602F82ECE0101960E940302FF2074
:1010700089F020E030E04AE754E46091B7027091D3
:10108000B8028091B9029091BA020E9407140E949E
:10109000DB156B0126E030E043E050E0B801CE0103
:1010A00001960E94860265E371E0CE0101960E94DE
:1010B0001602F82ECE0101960E940302FF2089F04D
:1010C00020E030E04AE754E46091BB027091BC023A
:1010D0008091BD029091BE020E9407140E94DB1510
:1010E0006B0126E030E043E050E0B801CE0101960C
:1010F0000E94860269E371E0CE0101960E94160209
:10110000F82ECE0101960E940302FF2089F020E014
:1011100030E04AE754E46091BF027091C0028091D0
:10112000C1029091C2020E9407140E94DB156B015C
:1011300026E030E043E050E0B801CE0101960E9485
:1011400086026DE371E0CE0101960E941602F82E30
:10115000CE0101960E940302FF2089F020E030E0DA
:101160004AE754E46091A7027091A8028091A90215
:101170009091AA020E9407140E94DB156B0126E0E1
:1011800030E043E050E0B801CE0101960E948602B3
:1011900061E471E0CE0101960E941602F82ECE01A4
:1011A00001960E940302FF2089F020E030E04AE728
:1011B00054E46091AB027091AC028091AD029091C9
:1011C000AE020E9407140E94DB156B0126E030E09E
:1011D00043E050E0B801CE0101960E94860265E42A
:1011E00071E0CE0101960E941602F82ECE01019602
:1011F0000E940302FF2089F020E030E04AE754E437
:101200006091C3027091C4028091C5029091C602A0
:101210000E9407140E94DB156B0126E030E043E0DA
:1012200050E0B801CE0101960E94860269E471E0A7
:10123000CE0101960E941602F82ECE0101960E9460
:101240000302FF2089F020E030E04AE754E4609197
:10125000C7027091C8028091C9029091CA020E948F
:1012600007140E94DB156B0126E030E043E050E0FC
:10127000B801CE0101960E9486026DE471E0CE01B4
:1012800001960E941602F82ECE0101960E940302DA
:10129000FF2089F020E030E04AE754E460916D02DD
:1012A00070916E0280916F02909170020E940714FB
:1012B0000E94DB156B0126E030E043E050E0B8010E
:1012C000CE0101960E94860261E571E0CE01019691
:1012D0000E941602F82ECE0101960E940302FF2002
:1012E00089F020E030E04AE754E46091FB0270911D
:1012F000FC028091FD029091FE020E9407140E9460
:10130000DB156B0126E030E043E050E0B801CE0190
:1013100001960E94860265E571E0CE0101960E9469
:101320001602F82ECE0101960E940302FF2089F0DA
:1013300020E030E04AE754E460917102709172025B
:1013400080917302909174020E9407140E94DB1531
:101350006B0126E030E043E050E0B801CE01019699
:101360000E94860269E571E0CE0101960E94160294
:10137000F82ECE0101960E940302FF2089F020E0A2
:1013800030E04AE754E46091FF02709100038091DD
:101390000103909102030E9407140E94DB156B0168
:1013A00026E030E043E050E0B801CE0101960E9413
:1013B00086026DE571E0CE0101960E941602F82EBC
:1013C000CE0101960E940302FF2089F020E030E068
:1013D0004AE754E460917502709176028091770239
:1013E000909178020E9407140E94DB156B0126E0A1
:1013F00030E043E050E0B801CE0101960E94860241
:1014000061E671E0CE0101960E941602F82ECE012F
:1014100001960E940302FF2089F020E030E04AE7B5
:1014200054E460910303709104038091050390914B
:1014300006030E9407140E94DB156B0126E030E0D2
:1014400043E050E0B801CE0101960E94860265E6B5
:1014500071E0CE0101960E941602F82ECE0101968F
:101460000E940302FF2021F0C0908502D0908602E6
:1014700026E030E043E050E0B801CE0101960E9442
:10148000860269E671E0CE0101960E941602F82EEE
:10149000CE0101960E940302FF2089F020E030E097
:1014A0004AE754E46091CB027091CC028091CD0266
:1014B0009091CE020E9407140E94DB156B0126E07A
:1014C00030E043E050E0B801CE0101960E94860270
:1014D0006DE671E0CE0101960E941602F82ECE0153
:1014E00001960E940302FF2021F0C0909101D0904C
:1014F000920126E030E043E050E0B801CE010196D1
:101500000E94860261E771E0CE0101960E941602F8
:10151000182FCE0101960E940302112359F0609109
:1015200093027091940280919502909196020E948C
:10153000DB156B01C6010E94EB0177C8FF920F9388
:101540001F93CF93DF9300D0CDB7DEB7FF24F39482
:1015500080EA91E00E94CA00892B61F180EA91E063
:101560000E94A8008D3019F4F0928F01F1CF898389
:101570001A8200911703109118030F5F1F4FB801D3
:1015800083E193E00E943302882311F32091130337
:10159000309114038091170390911803BE016F5F7F
:1015A0007F4F820F931F0E943218109318030093ED
:1015B0001703CECF0F900F90DF91CF911F910F9116
:1015C000FF9008950E94D60081110C949E0A089500
:1015D0001F920F920FB60F9211242F933F938F9368
:1015E0009F93AF93BF9380919C0190919D01A09197
:1015F0009E01B0919F0130919B0123E0230F2D3775
:1016000058F50196A11DB11D20939B0180939C016B
:1016100090939D01A0939E01B0939F0180919701AB
:1016200090919801A0919901B0919A010196A11D04
:10163000B11D8093970190939801A0939901B09365
:101640009A01BF91AF919F918F913F912F910F90F0
:101650000FBE0F901F90189526E8230F0296A11D2C
:10166000B11DD2CF1F920F920FB60F9211242F935C
:101670003F934F935F936F937F938F939F93AF931A
:10168000BF93EF93FF9380EA91E00E94E000FF9107
:10169000EF91BF91AF919F918F917F916F915F91EA
:1016A0004F913F912F910F900FBE0F901F90189563
:1016B0001F920F920FB60F9211242F938F939F9327
:1016C000EF93FF93E091B001F091B1018081E0913F
:1016D000B601F091B70182FD1BC090818091B901E4
:1016E0008F5F8F732091BA01821741F0E091B901A9
:1016F000F0E0E056FE4F958F8093B901FF91EF9196
:101700009F918F912F910F900FBE0F901F90189562
:101710008081F4CF0F931F93E0EAF1E013821282ED
:1017200088EE93E0A0E0B0E084839583A683B7833E
:101730008AE091E09183808385EC90E095878487AF
:1017400084EC90E09787868780EC90E0918B808B8B
:1017500081EC90E0938B828B82EC90E0958B848B74
:1017600086EC90E0978B868B118E128E138E148EE2
:10177000E3E1F3E011821082138212821582148257
:1017800050E040E06DE871E0CF010E945B02EFECB9
:10179000F2E0108211821282138214A215A216A204
:1017A00017A210A611A612A613A610AE11AE12AE65
:1017B00013AE14AE15AE16AE17AE10920F03109204
:1017C0001003109211031092120380E090E0A0E049
:1017D000B0E484A795A7A6A7B7A70AE017ED23E270
:1017E0003DE300AB11AB22AB33AB4DEC5CEC6CECEE
:1017F0007DE344AB55AB66AB77ABE1E4F2E010823E
:1018000011821282138214A215A216A217A210A688
:1018100011A612A613A610AE11AE12AE13AE14AEE0
:1018200015AE16AE17AE109281021092820210927F
:1018300083021092840284A795A7A6A7B7A700AB3E
:1018400011AB22AB33AB44AB55AB66AB77AB22E00D
:1018500030E0309386022093850210928702109226
:1018600088021092890210928A0210928B021092C2
:101870008C0210928D0210928E0210928F021092A2
:101880009002109291021092920210929302109282
:101890009402109295021092960210929702109262
:1018A00098021092990210929A0210929B02109242
:1018B0009C0210929D0210929E0210929F02109222
:1018C000A0021092A1021092A20200E010E020E813
:1018D0003FE30093CB021093CC022093CD023093D0
:1018E000CE024093B7025093B8026093B90270934E
:1018F000BA024DEC5CEC6CE47DE34093BF02509384
:10190000C0026093C1027093C20240E050E060E008
:101910007EE34093BB025093BC026093BD02709380
:10192000BE024AE057ED63E27CE34093B30250937A
:10193000B4026093B5027093B60247E157EB61EDD4
:101940007AE34093AF025093B0026093B102709378
:10195000B2028093A7029093A802A093A902B09329
:10196000AA020E94600060933D0270933E02809341
:101970003F02909340021F910F910895CF93DF9300
:10198000CDB7DEB7A1970FB6F894DEBF0FBECDBFBF
:10199000789484B5826084BD84B5816084BD85B54A
:1019A000826085BD85B5816085BD80916E00816056
:1019B00080936E00109281008091810082608093FC
:1019C00081008091810081608093810080918000FE
:1019D0008160809380008091B10084608093B10029
:1019E0008091B00081608093B00080917A00846023
:1019F00080937A0080917A00826080937A0080914F
:101A00007A00816080937A0080917A008068809368
:101A10007A001092C100E091B001F091B10182E032
:101A20008083E091AC01F091AD011082E091AE01B4
:101A3000F091AF0180E180831092B801E091B40190
:101A4000F091B50186E08083E091B201F091B3019D
:101A5000808180618083E091B201F091B301808147
:101A600088608083E091B201F091B3018081806849
:101A70008083E091B201F091B30180818F7D8083FA
:101A800064E170E083E193E00E9433020E94600011
:101A90006B017C0180913D0290913E02A0913F023A
:101AA000B0914002A7019601281B390B4A0B5B0B32
:101AB000CA01B90116161706180619060CF091C4CA
:101AC0000E94A8132FE632E143E85AE30E9407146C
:101AD0006F83788789879A87C0923D02D0923E02B1
:101AE000E0923F02F092400230910B033E8B409116
:101AF0000C034F8B50910D03588F80910E03898FEB
:101B000020E030E0A9016091F7027091F802809125
:101B1000F9029091FA020E94A113882309F436C5B4
:101B200020E030E0A9016E897F89888D998D0E941F
:101B3000FD146B877F87888B998B309107033A8BD5
:101B4000409108034B8B509109035C8B80910A03F1
:101B50008D8B20E030E0A9016091F3027091F402D6
:101B60008091F5029091F6020E94A113882309F456
:101B700016C520E030E0A9016A897B898C899D899E
:101B80000E94FD14162F072F382E292E4090930106
:101B90005090940160909501709096018090CB02D6
:101BA0009090CC02A090CD02B090CE02C09079026D
:101BB000D0907A02E0907B02F0907C02A70196011F
:101BC000612F702F832D922D0E94FC14A50194018A
:101BD0000E940714A70196010E94FD146A8F7B8F53
:101BE0008C8F9D8F6093790270937A0280937B0231
:101BF00090937C02C0907D02D0907E02E0907F02A4
:101C0000F0908002A70196016B857F85888999896C
:101C10000E94FC14A50194010E940714A7019601DB
:101C20000E94FD146E8F7F8F88A399A360937D021D
:101C300070937E0280937F02909380028091850250
:101C400090918602029709F07FC1212F302F432DFA
:101C5000522DC301B2010E94FC142091A7023091C1
:101C6000A8024091A9025091AA020E9407142B8554
:101C70003F85488959890E94FC142B013C01C09082
:101C8000BF02D090C002E090C102F090C20220E0FA
:101C900030E0A901C701B6010E9411161816E4F53B
:101CA00080908F0290909002A0909102B09092024A
:101CB00020918702309188024091890250918A02D6
:101CC000C301B2010E94FC14A70196010E9469158C
:101CD0006B877C878D879E87A50194016F817885AE
:101CE00089859A850E940714A70196010E946915AB
:101CF0009B01AC016B857C858D859E850E94FC14C3
:101D0000A50194010E94FD1460938F0270939002CC
:101D1000809391029093920240928702509288029F
:101D20006092890270928A0280909B0290909C023D
:101D3000A0909D02B0909E022091B3023091B40217
:101D40004091B5025091B60260918F02709190025D
:101D500080919102909192020E9407146B017C0184
:101D60002091AF023091B0024091B1025091B20285
:101D7000C301B2010E9407149B01AC01C701B60167
:101D80000E94FD14A50194010E94FC146B017C01CA
:101D900020E030E04AE754EC0E94A11387FD04C420
:101DA00020E030E04AE754E4C701B6010E94111672
:101DB000181634F4C12CD12C9AE7E92E94E4F92EAC
:101DC000C0928B02D0928C02E0928D02F0928E0231
:101DD0004090B7025090B8026090B9027090BA0279
:101DE00020E030E0A901C301B2010E9411161816CB
:101DF000C4F4A70196016F81788589859A850E9430
:101E00000714A30192010E946915A50194010E9483
:101E1000FD1460939B0270939C0280939D029093AB
:101E20009E02C0909B02D0909C02E0909D02F09098
:101E30009E0220E030E04AE754ECC701B6010E9460
:101E4000A11387FDB8C320E030E04AE754E4C7019E
:101E5000B6010E941116181634F4C12CD12C0AE7D1
:101E6000E02E04E4F02EC0929B02D0929C02E092FD
:101E70009D02F0929E028090BB029090BC02A090C6
:101E8000BD02B090BE0220E030E0A901C501B4015E
:101E90000E941116181604F5A70196016F81788526
:101EA00089859A850E940714A50194010E946915ED
:101EB0009B01AC0160919F027091A0028091A102F0
:101EC0009091A2020E94FD1460939F027093A00261
:101ED0008093A1029093A20280909F029090A00212
:101EE000A090A102B090A20220E030E048E453ECC0
:101EF000C501B4010E94A11387FD64C320E030E056
:101F000048E453E4C501B4010E941116181634F4D4
:101F1000812C912CB8E4AB2EB3E4BB2E80929F02AF
:101F20009092A002A092A102B092A202A7019601F3
:101F3000C501B4010E94FD14609393027093940252
:101F40008093950290939602C0909302D090940251
:101F5000E0909502F090960220E030E048E453ECE7
:101F6000C701B6010E94A11387FD33C320E030E012
:101F700048E453E4C701B6010E941116181634F460
:101F8000C12CD12CF8E4EF2EF3E4FF2EC092930283
:101F9000D0929402E0929502F0929602109265021D
:101FA0001092660210926702109268021092690203
:101FB00010926A0210926B0210926C022F81388587
:101FC00049855A8560914102709142028091430295
:101FD000909144020E94FD1460934102709342026A
:101FE0008093430290934402409075025090760291
:101FF000609077027090780220E030E0A901C30180
:10200000B2010E941116181624F58090810290905A
:102010008202A0908302B0908402A5019401C701BE
:10202000B6010E94FC142F81388549855A850E948B
:102030000714A30192010E946915A50194010E9451
:10204000FD146093810270938202809383029093C7
:1020500084028090710290907202A0907302B090FE
:10206000740220E030E0A901C501B4010E941116FC
:10207000181604F52091810230918202409183026A
:10208000509184026F81788589859A850E94071412
:10209000A50194010E9469152E8D3F8D48A159A17B
:1020A0000E94FD1460937D0270937E0280937F02F4
:1020B0009093800280907D0290907E02A0907F029B
:1020C000B090800220E03EEF4FEF56ECC501B40126
:1020D0000E94A11387FD84C220E03EEF4FEF56E43B
:1020E000C501B4010E94111618163CF4812C7EEF34
:1020F000972EAA24AA9476E4B72E80927D0290921D
:102100007E02A0927F02B092800240906D025090B9
:102110006E0260906F027090700220E030E0A901C2
:10212000C301B2010E9411161816D4F4A50194013E
:102130006F81788589859A850E940714A301920191
:102140000E9469152A8D3B8D4C8D5D8D0E94FD147A
:102150006093790270937A0280937B0290937C0261
:102160008090790290907A02A0907B02B0907C02DD
:1021700020E03EEF4FEF56ECC501B4010E94A113E1
:1021800087FD36C220E03EEF4FEF56E4C501B401B3
:102190000E94111618163CF4812C5EEF952EAA248D
:1021A000AA9456E4B52E8092790290927A02A09277
:1021B0007B02B0927C022DEC3CEC4CEC5DE3209376
:1021C000F3023093F4024093F5025093F60210921A
:1021D000F7021092F8021092F9021092FA022F817F
:1021E000388549855A856091CF027091D0028091DF
:1021F000D1029091D2020E94FD146093CF0270939D
:10220000D0028093D1029093D20240900303509069
:102210000403609005037090060320E030E0A901FC
:10222000C301B2010E941116181624F580900F0305
:1022300090901003A0901103B0901203A501940197
:10224000C701B6010E94FC142F81388549855A8543
:102250000E940714A30192010E946915A50194012F
:102260000E94FD1460930F03709310038093110379
:1022700090931203C090FF02D0900003E0900103FE
:10228000F090020320E030E0A901C701B6010E94EE
:10229000111618162CF520E030E0A90160910F030B
:1022A0007091100380911103909112030E94FD140C
:1022B0002F81388549855A850E940714A701960108
:1022C0000E9469152E893F89488D598D0E94FD1401
:1022D00060930B0370930C0380930D0390930E0394
:1022E000C0900B03D0900C03E0900D03F0900E0310
:1022F00020E03EEF4FEF56ECC701B6010E94A1135C
:1023000087FD7EC120E03EEF4FEF56E4C701B601E6
:102310000E94111618163CF4C12C3EEFD32EEE2469
:10232000EA9436E4F32EC0920B03D0920C03E092B1
:102330000D03F0920E038090FB029090FC02A0909F
:10234000FD02B090FE0220E030E0A901C501B40119
:102350000E9411161816D4F4A70196016F81788592
:1023600089859A850E940714A50194010E94691528
:102370002A893B894C895D890E94FD14609307037B
:10238000709308038093090390930A03C090070396
:10239000D0900803E0900903F0900A0320E03EEF9C
:1023A0004FEF56ECC701B6010E94A11387FD30C163
:1023B00020E03EEF4FEF56E4C701B6010E94111630
:1023C00018163CF4C12C9EEFD92EEE24EA9496E424
:1023D000F92EC0920703D0920803E0920903F0920D
:1023E0000A038091850290918602892B29F48091BD
:1023F000900181111092900180918F01882379F1D1
:102400001A8219821C821B821E821D826091130314
:10241000709114036115710541F0409117035091BB
:102420001803CE0101960E945B0269E771E0CE01BC
:1024300001960E941602882309F4F2C032E030931C
:102440008E01CE0101960E94030250E040E06DE84B
:1024500071E083E193E00E945B0210928F01809112
:102460008E01813049F40E9460004AE00E947C01A4
:1024700088E191E00E946F0180918E01823009F025
:1024800062C00E9460004AE00E947C018CE891E0FA
:102490000E946F0120E030E040E251E4609193023D
:1024A0007091940280919502909196020E94071477
:1024B0000E94DB15CB010E94E1018CE891E00E94B3
:1024C0006F0120E030E0A9016091F3027091F40205
:1024D0008091F5029091F6020E94A1138111D5C05E
:1024E00060910703709108038091090390910A039A
:1024F0000E94DB15CB010E94E1018CE891E00E9473
:102500006F0120E030E0A9016091F7027091F802BC
:102510008091F9029091FA020E94A1138111C3C027
:1025200060910B0370910C0380910D0390910E0349
:1025300020E030E040E251E40E9469150E94DB1582
:10254000CB010E94EB0180918E01833029F40E941F
:1025500060004AE00E947C0180918E01843029F461
:102560000E9460004AE00E947C0180918E018530CB
:1025700029F40E9460004AE00E947C010E94D6007B
:10258000882309F483CA0E949E0A80CA9E899B8779
:10259000AF89AF87B88DB88B298D298BCECA1A89A0
:1025A0000B893C882D88F2CAC12CD12C8AE7E82EF1
:1025B00084ECF82E05CCC12CD12C1AE7E12E14ECBA
:1025C000F12E51CC812C912CA8E4AA2EA3ECBA2E8A
:1025D000A5CCC12CD12CE8E4EE2EE3ECFE2ED6CC1B
:1025E000812C6EEF962EAA24AA9466ECB62E85CD89
:1025F000812C4EEF942EAA24AA9446ECB42ED3CD6F
:10260000C12C2EEFD22EEE24EA9426ECF22E8BCEA5
:10261000C12C8EEFD82EEE24EA9486ECF82ED9CE7B
:102620006DE771E0CE0101960E941602882321F029
:1026300043E040938E0105CF61E871E0CE01019641
:102640000E941602882321F054E050938E01F9CEA7
:1026500065E871E0CE0101960E941602882321F000
:1026600085E080938E01EDCE69E871E0CE010196A0
:102670000E941602882321F091E090938E01E1CE12
:10268000CE0101960E94FB02DCCE20E030E0A901E1
:1026900060910703709108038091090390910A03E8
:1026A0000E94FD1425CF20E030E0A90160910B03CA
:1026B00070910C0380910D0390910E030E94FD1404
:1026C00037CF83E193E00C9403021F93FC01992719
:1026D0008827BC01E89411911032E9F3193010F009
:1026E0001E30C8F31B3251F01D3249F4689406C005
:1026F0000E948C13610F711D811D911D119110534A
:102700001A30B0F33EF490958095709561957F4FA7
:102710008F4F9F4F1F910895592F482F372F262FE6
:10272000660F771F881F991F660F771F881F991FD5
:10273000620F731F841F951F660F771F881F991FD5
:1027400008950E94E31308F481E00895E89409C015
:1027500097FB3EF490958095709561957F4F8F4FD4
:102760009F4F9923A9F0F92F96E9BB279395F695EA
:10277000879577956795B795F111F8CFFAF4BB0F68
:1027800011F460FF1BC06F5F7F4F8F4F9F4F16C0CC
:10279000882311F096E911C0772321F09EE8872F56
:1027A000762F05C0662371F096E8862F70E060E012
:1027B0002AF09A95660F771F881FDAF7880F96958B
:1027C000879597F90895990F0008550FAA0BE0E82F
:1027D000FEEF16161706E807F907C0F012161306E3
:1027E000E407F50798F0621B730B840B950B39F423
:1027F0000A2661F0232B242B252B21F408950A2689
:1028000009F4A140A6958FEF811D811D08950E94B6
:102810001A140C948B140E947D1438F00E948414B6
:1028200020F0952311F00C9474140C947A14112454
:102830000C94BF140E949C1470F3959FC1F3950FE4
:1028400050E0551F629FF001729FBB27F00DB11D34
:10285000639FAA27F00DB11DAA1F649F6627B00DC4
:10286000A11D661F829F2227B00DA11D621F739FAD
:10287000B00DA11D621F839FA00D611D221F749FBB
:102880003327A00D611D231F849F600D211D822F02
:10289000762F6A2F11249F5750409AF0F1F0882329
:1028A0004AF0EE0FFF1FBB1F661F771F881F915056
:1028B0005040A9F79E3F510580F00C9474140C947D
:1028C000BF145F3FE4F3983ED4F386957795679500
:1028D000B795F795E7959F5FC1F7FE2B880F911D80
:1028E0009695879597F9089597F99F6780E870E026
:1028F00060E008959FEF80EC089500240A94161676
:10290000170618060906089500240A9412161306DD
:10291000140605060895092E0394000C11F488236B
:1029200052F0BB0F40F4BF2B11F460FF04C06F5F87
:102930007F4F8F4F9F4F089557FD9058440F551F5D
:1029400059F05F3F71F04795880F97FB991F61F031
:102950009F3F79F087950895121613061406551FA8
:10296000F2CF4695F1DF08C0161617061806991F14
:10297000F1CF86957105610508940895E894BB2709
:1029800066277727CB0197F908952F923F924F92B0
:102990005F926F927F928F929F92AF92BF92CF92EF
:1029A000DF92EF92FF920F931F93CF93DF93CDB7F8
:1029B000DEB7CA1BDB0B0FB6F894DEBF0FBECDBF70
:1029C00009942A88398848885F846E847D848C8441
:1029D0009B84AA84B984C884DF80EE80FD800C814A
:1029E0001B81AA81B981CE0FD11D0FB6F894DEBF2D
:1029F0000FBECDBFED0108955058BB27AA270E94F6
:102A000014150C948B140E947D1438F00E948414C9
:102A100020F039F49F3F19F426F40C947A140EF444
:102A2000E095E7FB0C947414E92F0E949C1458F372
:102A3000BA17620773078407950720F079F4A6F5A3
:102A40000C94BE140EF4E0950B2EBA2FA02D0B01A2
:102A5000B90190010C01CA01A0011124FF27591BE3
:102A600099F0593F50F4503E68F11A16F040A22FE9
:102A7000232F342F4427585FF3CF4695379527955A
:102A8000A795F0405395C9F77EF41F16BA0B620B59
:102A9000730B840BBAF09150A1F0FF0FBB1F661FA0
:102AA000771F881FC2F70EC0BA0F621F731F841FE3
:102AB00048F4879577956795B795F7959E3F08F009
:102AC000B0CF9395880F08F09927EE0F97958795CB
:102AD00008950E947D150C948B140E94841458F064
:102AE0000E947D1440F029F45F3F29F00C94741487
:102AF00051110C94BF140C947A140E949C1468F326
:102B00009923B1F3552391F3951B550BBB27AA27A6
:102B100062177307840738F09F5F5F4F220F331FE0
:102B2000441FAA1FA9F335D00E2E3AF0E0E832D0A8
:102B300091505040E695001CCAF72BD0FE2F29D0AB
:102B4000660F771F881FBB1F261737074807AB077D
:102B5000B0E809F0BB0B802DBF01FF2793585F4FF2
:102B60003AF09E3F510578F00C9474140C94BF1405
:102B70005F3FE4F3983ED4F3869577956795B795D4
:102B8000F7959F5FC9F7880F911D9695879597F9DF
:102B90000895E1E0660F771F881FBB1F6217730758
:102BA0008407BA0720F0621B730B840BBA0BEE1F6D
:102BB00088F7E09508950E94E2156894B1110C948D
:102BC000BF1408950E94A41488F09F5798F0B92F5D
:102BD0009927B751B0F0E1F0660F771F881F991F52
:102BE0001AF0BA95C9F714C0B13091F00E94BE1422
:102BF000B1E008950C94BE14672F782F8827B85F32
:102C000039F0B93FCCF3869577956795B395D9F7A9
:102C10003EF490958095709561957F4F8F4F9F4FB3
:102C200008950E94E31308F48FEF0895A1E21A2E8D
:102C3000AA1BBB1BFD010DC0AA1FBB1FEE1FFF1F60
:102C4000A217B307E407F50720F0A21BB30BE40BB0
:102C5000F50B661F771F881F991F1A9469F76095F7
:102C60007095809590959B01AC01BD01CF010895B1
:102C7000EE0FFF1F0590F491E02D09940F931F9321
:102C8000CF93DF938230910510F482E090E0E091E1
:102C90001B03F0911C0330E020E0B0E0A0E030978F
:102CA00099F42115310509F44AC0281B390B243049
:102CB0003105D8F58A819B816115710589F1FB0188
:102CC00093838283FE0111C040815181028113816F
:102CD00048175907E0F04817590799F4109761F021
:102CE00012960C93129713961C933296CF01DF9194
:102CF000CF911F910F91089500931B0310931C0314
:102D0000F4CF2115310551F04217530738F0A901CE
:102D1000DB019A01BD01DF01F801C1CFEF01F9CF5D
:102D200090931C0380931B03CDCFFE01E20FF31F92
:102D3000819391932250310939832883D7CF2091F1
:102D4000190330911A03232B41F420910201309191
:102D5000030130931A03209319032091000130914D
:102D600001012115310541F42DB73EB74091040111
:102D700050910501241B350BE0911903F0911A03C2
:102D8000E217F307A0F42E1B3F0B2817390778F042
:102D9000AC014E5F5F4F2417350748F04E0F5F1FA1
:102DA00050931A0340931903819391939FCFF0E0BE
:102DB000E0E09CCFCF93DF930097E9F0FC013297DE
:102DC00013821282A0911B03B0911C03ED0130E02D
:102DD00020E01097A1F420813181820F931F209170
:102DE000190330911A032817390709F061C0F093CD
:102DF0001A03E0931903DF91CF910895EA01CE17EA
:102E0000DF07E8F54A815B819E0141155105B1F765
:102E1000E901FB83EA8349915991C40FD51FEC174F
:102E2000FD0761F4808191810296840F951FE9016D
:102E300099838883828193819B838A83F0E0E0E099
:102E400012968D919C9113970097B9F52D913C9115
:102E50001197CD010296820F931F20911903309193
:102E60001A032817390739F6309751F510921C03C9
:102E700010921B03B0931A03A0931903BCCFD38302
:102E8000C28340815181840F951FC817D90761F40F
:102E90004E5F5F4F88819981480F591F518340834E
:102EA0008A819B81938382832115310509F0B0CFFC
:102EB000F0931C03E0931B039ECFFD01DC01C0CF08
:102EC00013821282D7CFB0E0A0E0E9E6F7E10C94DC
:102ED000C7148C01009751F4CB010E943E168C015F
:102EE000C801CDB7DEB7E0E10C94E314FC01E60FB6
:102EF000F71F9C0122503109E217F30708F49DC027
:102F0000D901CD91DC911197C617D70798F0C5303C
:102F1000D10530F3CE0104978617970708F3C61B37
:102F2000D70B2297C193D1936D937C93CF010E94CD
:102F3000DA16D6CF5B01AC1ABD0A4C018C0E9D1E71
:102F4000A0911B03B0911C03512C412CF12CE12CBE
:102F5000109731F58091190390911A0388159905FE
:102F600009F05CC04616570608F058C08091000171
:102F700090910101009741F48DB79EB740910401F3
:102F800050910501841B950BE817F90708F055C00F
:102F9000F0931A03E0931903F90171836083A0CFC2
:102FA0008D919C91119712966C90129713967C902C
:102FB0001397A815B90559F56C0142E0C40ED11C50
:102FC000CA14DB0420F1AC014A195B09DA0112963C
:102FD000159780F06282738251834083D9016D938B
:102FE0007C93E114F10471F0D7011396FC93EE93F6
:102FF000129776CF22968C0F9D1FF90191838083C3
:10300000F301EFCFF0931C03E0931B0369CF481645
:10301000590608F42C017D01D3019ACFCB010E94FF
:103020003E167C01009749F0AE01B8010E942018BD
:10303000C8010E94DA16870153CF10E000E050CF9C
:10304000FB01DC0102C001900D9241505040D8F7C5
:103050000895FB01DC018D91019080190110D9F3D5
:10306000990B0895FB01DC0101900D920020E1F71E
:10307000089510E0C5E3D0E004C0FE010E943816B8
:0C3080002196C633D107C9F7F894FFCFA2
:10308C0000001D0380000000000002016C0099008C
:10309C004F01CA00A800BC000D0A00616E006163FC
:1030AC000061733A00737466004B7076004B647663
:1030BC0000546D690054697600546676004B706656
:1030CC00004B646600546966005466660054667270
:1030DC000054666D005476720054766D00546F7215
:1030EC0000546F6D00437470004B6C6D007374551D
:1030FC000073556D0061673A00616C3200616C338E
:0E310C0000616C3400616C3500616C000900DC
:00000001FF
